{
  "address": "0xE2307e3710d108ceC7a4722a020a050681c835b3",
  "abi": [
    {
      "inputs": [
        {
          "internalType": "address",
          "name": "_tokenA",
          "type": "address"
        },
        {
          "internalType": "address",
          "name": "_tokenB",
          "type": "address"
        }
      ],
      "stateMutability": "nonpayable",
      "type": "constructor"
    },
    {
      "inputs": [
        {
          "internalType": "address",
          "name": "owner",
          "type": "address"
        }
      ],
      "name": "OwnableInvalidOwner",
      "type": "error"
    },
    {
      "inputs": [
        {
          "internalType": "address",
          "name": "account",
          "type": "address"
        }
      ],
      "name": "OwnableUnauthorizedAccount",
      "type": "error"
    },
    {
      "anonymous": false,
      "inputs": [
        {
          "indexed": true,
          "internalType": "address",
          "name": "user",
          "type": "address"
        },
        {
          "indexed": false,
          "internalType": "uint256",
          "name": "amountA",
          "type": "uint256"
        },
        {
          "indexed": false,
          "internalType": "uint256",
          "name": "amountB",
          "type": "uint256"
        }
      ],
      "name": "LiquidityAdded",
      "type": "event"
    },
    {
      "anonymous": false,
      "inputs": [
        {
          "indexed": true,
          "internalType": "address",
          "name": "user",
          "type": "address"
        },
        {
          "indexed": false,
          "internalType": "uint256",
          "name": "amountA",
          "type": "uint256"
        },
        {
          "indexed": false,
          "internalType": "uint256",
          "name": "amountB",
          "type": "uint256"
        }
      ],
      "name": "LiquidityRemoved",
      "type": "event"
    },
    {
      "anonymous": false,
      "inputs": [
        {
          "indexed": true,
          "internalType": "address",
          "name": "previousOwner",
          "type": "address"
        },
        {
          "indexed": true,
          "internalType": "address",
          "name": "newOwner",
          "type": "address"
        }
      ],
      "name": "OwnershipTransferred",
      "type": "event"
    },
    {
      "anonymous": false,
      "inputs": [
        {
          "indexed": true,
          "internalType": "address",
          "name": "user",
          "type": "address"
        },
        {
          "indexed": false,
          "internalType": "uint256",
          "name": "amountIn",
          "type": "uint256"
        },
        {
          "indexed": false,
          "internalType": "uint256",
          "name": "amountOut",
          "type": "uint256"
        },
        {
          "indexed": false,
          "internalType": "bool",
          "name": "isAtoB",
          "type": "bool"
        }
      ],
      "name": "TokenSwapped",
      "type": "event"
    },
    {
      "inputs": [
        {
          "internalType": "uint256",
          "name": "amountA",
          "type": "uint256"
        },
        {
          "internalType": "uint256",
          "name": "amountB",
          "type": "uint256"
        }
      ],
      "name": "addLiquidity",
      "outputs": [],
      "stateMutability": "nonpayable",
      "type": "function"
    },
    {
      "inputs": [
        {
          "internalType": "uint256",
          "name": "amountIn",
          "type": "uint256"
        },
        {
          "internalType": "uint256",
          "name": "reserveIn",
          "type": "uint256"
        },
        {
          "internalType": "uint256",
          "name": "reserveOut",
          "type": "uint256"
        }
      ],
      "name": "getAmountOut",
      "outputs": [
        {
          "internalType": "uint256",
          "name": "",
          "type": "uint256"
        }
      ],
      "stateMutability": "pure",
      "type": "function"
    },
    {
      "inputs": [
        {
          "internalType": "address",
          "name": "_token",
          "type": "address"
        }
      ],
      "name": "getPrice",
      "outputs": [
        {
          "internalType": "uint256",
          "name": "",
          "type": "uint256"
        }
      ],
      "stateMutability": "view",
      "type": "function"
    },
    {
      "inputs": [],
      "name": "owner",
      "outputs": [
        {
          "internalType": "address",
          "name": "",
          "type": "address"
        }
      ],
      "stateMutability": "view",
      "type": "function"
    },
    {
      "inputs": [
        {
          "internalType": "uint256",
          "name": "amountA",
          "type": "uint256"
        },
        {
          "internalType": "uint256",
          "name": "amountB",
          "type": "uint256"
        }
      ],
      "name": "removeLiquidity",
      "outputs": [],
      "stateMutability": "nonpayable",
      "type": "function"
    },
    {
      "inputs": [],
      "name": "renounceOwnership",
      "outputs": [],
      "stateMutability": "nonpayable",
      "type": "function"
    },
    {
      "inputs": [],
      "name": "reserveA",
      "outputs": [
        {
          "internalType": "uint256",
          "name": "",
          "type": "uint256"
        }
      ],
      "stateMutability": "view",
      "type": "function"
    },
    {
      "inputs": [],
      "name": "reserveB",
      "outputs": [
        {
          "internalType": "uint256",
          "name": "",
          "type": "uint256"
        }
      ],
      "stateMutability": "view",
      "type": "function"
    },
    {
      "inputs": [
        {
          "internalType": "uint256",
          "name": "amountAIn",
          "type": "uint256"
        }
      ],
      "name": "swapAforB",
      "outputs": [],
      "stateMutability": "nonpayable",
      "type": "function"
    },
    {
      "inputs": [
        {
          "internalType": "uint256",
          "name": "amountBIn",
          "type": "uint256"
        }
      ],
      "name": "swapBforA",
      "outputs": [],
      "stateMutability": "nonpayable",
      "type": "function"
    },
    {
      "inputs": [],
      "name": "tokenA",
      "outputs": [
        {
          "internalType": "contract IERC20",
          "name": "",
          "type": "address"
        }
      ],
      "stateMutability": "view",
      "type": "function"
    },
    {
      "inputs": [],
      "name": "tokenB",
      "outputs": [
        {
          "internalType": "contract IERC20",
          "name": "",
          "type": "address"
        }
      ],
      "stateMutability": "view",
      "type": "function"
    },
    {
      "inputs": [
        {
          "internalType": "address",
          "name": "newOwner",
          "type": "address"
        }
      ],
      "name": "transferOwnership",
      "outputs": [],
      "stateMutability": "nonpayable",
      "type": "function"
    }
  ],
  "transactionHash": "0x192f610527b400a905caf8d65eb722af2880962e64e59e450af603f634ba4b10",
  "args": [
    "0xaE2abbDE6c9829141675fA0A629a675badbb0d9F",
    "0x8B342f4Ddcc71Af65e4D2dA9CD00cc0E945cFD12"
  ],
  "numDeployments": 1,
  "solcInputHash": "e914d30004f4b95c608b2dbbd103b3d4",
  "bytecode": "0x608060405234801561001057600080fd5b50604051610f5c380380610f5c83398101604081905261002f916100fc565b338061005557604051631e4fbdf760e01b81526000600482015260240160405180910390fd5b61005e81610090565b50600180546001600160a01b039384166001600160a01b0319918216179091556002805492909316911617905561012f565b600080546001600160a01b038381166001600160a01b0319831681178455604051919092169283917f8be0079c531659141344cd1fd0a4f28419497f9722a3daafe3b4186f6b6457e09190a35050565b80516001600160a01b03811681146100f757600080fd5b919050565b6000806040838503121561010f57600080fd5b610118836100e0565b9150610126602084016100e0565b90509250929050565b610e1e8061013e6000396000f3fe608060405234801561001057600080fd5b50600436106100cf5760003560e01c80638014a7aa1161008c5780639d7de6b3116100665780639d7de6b314610195578063dc5fa6c5146101a8578063e4f1f70a146101b1578063f2fde38b146101c457600080fd5b80638014a7aa1461015e5780638da5cb5b146101715780639cd441da1461018257600080fd5b8063054d50d4146100d45780630fc63d10146100fa57806319e36f3b1461012557806341976e091461012e5780635f64b55b14610141578063715018a614610154575b600080fd5b6100e76100e2366004610c48565b6101d7565b6040519081526020015b60405180910390f35b60015461010d906001600160a01b031681565b6040516001600160a01b0390911681526020016100f1565b6100e760045481565b6100e761013c366004610c74565b610227565b60025461010d906001600160a01b031681565b61015c610304565b005b61015c61016c366004610ca4565b610318565b6000546001600160a01b031661010d565b61015c610190366004610cbd565b6105b7565b61015c6101a3366004610cbd565b610743565b6100e760035481565b61015c6101bf366004610ca4565b6108f6565b61015c6101d2366004610c74565b610b8d565b60008084116102015760405162461bcd60e51b81526004016101f890610cdf565b60405180910390fd5b61020b8484610d2a565b6102158386610d3d565b61021f9190610d54565b949350505050565b6001546000906001600160a01b038381169116148061025357506002546001600160a01b038381169116145b6102975760405162461bcd60e51b8152602060048201526015602482015274496e76616c696420746f6b656e206164647265737360581b60448201526064016101f8565b6001546000906001600160a01b03908116908416036102d9576003546004546102c890670de0b6b3a7640000610d3d565b6102d29190610d54565b90506102fe565b6004546003546102f190670de0b6b3a7640000610d3d565b6102fb9190610d54565b90505b92915050565b61030c610bcb565b6103166000610bf8565b565b600081116103385760405162461bcd60e51b81526004016101f890610cdf565b6002546040516370a0823160e01b815233600482015282916001600160a01b0316906370a0823190602401602060405180830381865afa158015610380573d6000803e3d6000fd5b505050506040513d601f19601f820116820180604052508101906103a49190610d76565b10156103f25760405162461bcd60e51b815260206004820152601b60248201527f496e73756666696369656e7420546f6b656e422062616c616e6365000000000060448201526064016101f8565b6000610403826004546003546101d7565b90506000811161044e5760405162461bcd60e51b8152602060048201526016602482015275496e73756666696369656e74206c697175696469747960501b60448201526064016101f8565b6002546040516323b872dd60e01b81526001600160a01b03909116906323b872dd9061048290339030908790600401610d8f565b6020604051808303816000875af11580156104a1573d6000803e3d6000fd5b505050506040513d601f19601f820116820180604052508101906104c59190610db3565b5060015460405163a9059cbb60e01b8152336004820152602481018390526001600160a01b039091169063a9059cbb906044016020604051808303816000875af1158015610517573d6000803e3d6000fd5b505050506040513d601f19601f8201168201806040525081019061053b9190610db3565b50816004600082825461054e9190610d2a565b9250508190555080600360008282546105679190610dd5565b9091555050604080518381526020810183905260009181019190915233907f998db19d1e1862382f8a2644e3c399121b4ec6dcae1a42dd4034c30fca3fe32b906060015b60405180910390a25050565b6105bf610bcb565b6000821180156105cf5750600081115b6105eb5760405162461bcd60e51b81526004016101f890610cdf565b6001546040516323b872dd60e01b81526001600160a01b03909116906323b872dd9061061f90339030908790600401610d8f565b6020604051808303816000875af115801561063e573d6000803e3d6000fd5b505050506040513d601f19601f820116820180604052508101906106629190610db3565b506002546040516323b872dd60e01b81526001600160a01b03909116906323b872dd9061069790339030908690600401610d8f565b6020604051808303816000875af11580156106b6573d6000803e3d6000fd5b505050506040513d601f19601f820116820180604052508101906106da9190610db3565b5081600360008282546106ed9190610d2a565b9250508190555080600460008282546107069190610d2a565b9091555050604080518381526020810183905233917fac1d76749e5447b7b16f5ab61447e1bd502f3bb4807af3b28e620d1700a6ee4591016105ab565b61074b610bcb565b600354821115801561075f57506004548111155b6107a25760405162461bcd60e51b81526020600482015260146024820152734e6f7420656e6f756768206c697175696469747960601b60448201526064016101f8565b60015460405163a9059cbb60e01b8152336004820152602481018490526001600160a01b039091169063a9059cbb906044016020604051808303816000875af11580156107f3573d6000803e3d6000fd5b505050506040513d601f19601f820116820180604052508101906108179190610db3565b5060025460405163a9059cbb60e01b8152336004820152602481018390526001600160a01b039091169063a9059cbb906044016020604051808303816000875af1158015610869573d6000803e3d6000fd5b505050506040513d601f19601f8201168201806040525081019061088d9190610db3565b5081600360008282546108a09190610dd5565b9250508190555080600460008282546108b99190610dd5565b9091555050604080518381526020810183905233917f96cd817c6329656790ef8fba7675405193677d39619571282f5e21f3a98cd05991016105ab565b600081116109165760405162461bcd60e51b81526004016101f890610cdf565b6001546040516370a0823160e01b815233600482015282916001600160a01b0316906370a0823190602401602060405180830381865afa15801561095e573d6000803e3d6000fd5b505050506040513d601f19601f820116820180604052508101906109829190610d76565b10156109d05760405162461bcd60e51b815260206004820152601b60248201527f496e73756666696369656e7420546f6b656e412062616c616e6365000000000060448201526064016101f8565b60006109e1826003546004546101d7565b905060008111610a2c5760405162461bcd60e51b8152602060048201526016602482015275496e73756666696369656e74206c697175696469747960501b60448201526064016101f8565b6001546040516323b872dd60e01b81526001600160a01b03909116906323b872dd90610a6090339030908790600401610d8f565b6020604051808303816000875af1158015610a7f573d6000803e3d6000fd5b505050506040513d601f19601f82011682018060405250810190610aa39190610db3565b5060025460405163a9059cbb60e01b8152336004820152602481018390526001600160a01b039091169063a9059cbb906044016020604051808303816000875af1158015610af5573d6000803e3d6000fd5b505050506040513d601f19601f82011682018060405250810190610b199190610db3565b508160036000828254610b2c9190610d2a565b925050819055508060046000828254610b459190610dd5565b9091555050604080518381526020810183905260019181019190915233907f998db19d1e1862382f8a2644e3c399121b4ec6dcae1a42dd4034c30fca3fe32b906060016105ab565b610b95610bcb565b6001600160a01b038116610bbf57604051631e4fbdf760e01b8152600060048201526024016101f8565b610bc881610bf8565b50565b6000546001600160a01b031633146103165760405163118cdaa760e01b81523360048201526024016101f8565b600080546001600160a01b038381166001600160a01b0319831681178455604051919092169283917f8be0079c531659141344cd1fd0a4f28419497f9722a3daafe3b4186f6b6457e09190a35050565b600080600060608486031215610c5d57600080fd5b505081359360208301359350604090920135919050565b600060208284031215610c8657600080fd5b81356001600160a01b0381168114610c9d57600080fd5b9392505050565b600060208284031215610cb657600080fd5b5035919050565b60008060408385031215610cd057600080fd5b50508035926020909101359150565b6020808252818101527f416d6f756e74206d7573742062652067726561746572207468616e207a65726f604082015260600190565b634e487b7160e01b600052601160045260246000fd5b808201808211156102fe576102fe610d14565b80820281158282048414176102fe576102fe610d14565b600082610d7157634e487b7160e01b600052601260045260246000fd5b500490565b600060208284031215610d8857600080fd5b5051919050565b6001600160a01b039384168152919092166020820152604081019190915260600190565b600060208284031215610dc557600080fd5b81518015158114610c9d57600080fd5b818103818111156102fe576102fe610d1456fea26469706673582212208df00ae9949874be050152eb77bee2f140b3037633e90c223a78cf5858946ae064736f6c634300081a0033",
  "devdoc": {
    "errors": {
      "OwnableInvalidOwner(address)": [
        {
          "details": "The owner is not a valid owner account. (eg. `address(0)`)"
        }
      ],
      "OwnableUnauthorizedAccount(address)": [
        {
          "details": "The caller account is not authorized to perform an operation."
        }
      ]
    },
    "kind": "dev",
    "methods": {
      "owner()": {
        "details": "Returns the address of the current owner."
      },
      "renounceOwnership()": {
        "details": "Leaves the contract without owner. It will not be possible to call `onlyOwner` functions. Can only be called by the current owner. NOTE: Renouncing ownership will leave the contract without an owner, thereby disabling any functionality that is only available to the owner."
      },
      "transferOwnership(address)": {
        "details": "Transfers ownership of the contract to a new account (`newOwner`). Can only be called by the current owner."
      }
    },
    "version": 1
  },
  "userdoc": {
    "kind": "user",
    "methods": {},
    "version": 1
  },
  "storageLayout": {
    "storage": [
      {
        "astId": 8,
        "contract": "contracts/SimpleDEX.sol:SimpleDEX",
        "label": "_owner",
        "offset": 0,
        "slot": "0",
        "type": "t_address"
      },
      {
        "astId": 942,
        "contract": "contracts/SimpleDEX.sol:SimpleDEX",
        "label": "tokenA",
        "offset": 0,
        "slot": "1",
        "type": "t_contract(IERC20)877"
      },
      {
        "astId": 945,
        "contract": "contracts/SimpleDEX.sol:SimpleDEX",
        "label": "tokenB",
        "offset": 0,
        "slot": "2",
        "type": "t_contract(IERC20)877"
      },
      {
        "astId": 947,
        "contract": "contracts/SimpleDEX.sol:SimpleDEX",
        "label": "reserveA",
        "offset": 0,
        "slot": "3",
        "type": "t_uint256"
      },
      {
        "astId": 949,
        "contract": "contracts/SimpleDEX.sol:SimpleDEX",
        "label": "reserveB",
        "offset": 0,
        "slot": "4",
        "type": "t_uint256"
      }
    ],
    "types": {
      "t_address": {
        "encoding": "inplace",
        "label": "address",
        "numberOfBytes": "20"
      },
      "t_contract(IERC20)877": {
        "encoding": "inplace",
        "label": "contract IERC20",
        "numberOfBytes": "20"
      },
      "t_uint256": {
        "encoding": "inplace",
        "label": "uint256",
        "numberOfBytes": "32"
      }
    }
  }
}